:020000040800F2
:10000000B818002091010008A1100008ED0B0008AD
:100010009D10000847020008A1140008000000001D
:10002000000000000000000000000000A312000813
:10003000F908000800000000291100081914000840
:10004000AB010008AB010008AB010008AB010008E0
:10005000AB010008AB010008AB010008AB010008D0
:10006000AB010008AB010008AB010008AB010008C0
:10007000AB010008AB010008AB010008AB010008B0
:10008000AB010008AB010008AB010008AB010008A0
:100090007D140008AB010008AB010008AB010008AB
:1000A000AB010008AB010008AB010008AB01000880
:1000B000AB010008AB010008AB010008AB01000870
:1000C000AB010008AB010008AB010008AB01000860
:1000D000AB010008AB010008AB010008AB01000850
:1000E000AB010008AB010008AB01000800F002F80A
:1000F00000F03AF80AA090E8000C82448344AAF188
:100100000107DA4501D100F02FF8AFF2090EBAE885
:100110000F0013F0010F18BFFB1A43F0010318473B
:100120005015000070150000103A24BF78C878C13F
:10013000FAD8520724BF30C830C144BF04680C60ED
:10014000704700000023002400250026103A28BF35
:1001500078C1FBD8520728BF30C148BF0B60704739
:100160001FB51FBD10B510BD00F033F81146FFF7E5
:10017000F7FF01F04FFA00F051F803B4FFF7F2FF78
:1001800003BC00F059F8000080F3088870470000B5
:100190000948804709480047FEE7FEE7FEE7FEE71B
:1001A000FEE7FEE7FEE7FEE7FEE7FEE70448054957
:1001B000034A054B704700001D140008ED000008BD
:1001C000B8140020B8180020B814002070477047F9
:1001D0007047754600F02CF8AE4605006946534658
:1001E00020F00700854618B020B5FFF7DFFFBDE817
:1001F00020404FF000064FF000074FF000084FF08E
:10020000000B21F00701AC46ACE8C009ACE8C0091E
:10021000ACE8C009ACE8C0098D46704710B504468B
:10022000AFF300802046BDE81040FFF7A6BF0000F6
:10023000004870475414002001491820ABBEFEE767
:1002400026000200704700BFFEE7000010B5002145
:10025000837A012202FA03F13D4A126842F0010258
:100260003B4B1A603A4A1C3212688A43384B1C33A3
:100270001A60027BCAB9364A0C3212688A43344B80
:100280000C331A604288C38842EA0343304A403242
:10029000847A42F834300288838842EA03432C4A45
:1002A0004032847A02EBC4025360027B012A19D1E6
:1002B000274A0C3212680A43254B0C331A604288D5
:1002C000038842EA0343224A4032847A42F83430B7
:1002D000C288838842EA03431D4A4032847A02EB93
:1002E000C4025360C27A3AB9194A121D12688A438D
:1002F000174B1B1D1A6006E0154A121D12680A43AF
:10030000134B1B1D1A60028932B9114A143212684C
:100310008A430F4B14331A600289012A06D10C4A12
:10032000143212680A430A4B14331A60427B012AC2
:1003300006D1074A1C3212680A43054B1C331A6067
:10034000034A126822F00102014B1A6010BD00003E
:10035000006600401AB143690B43436102E0436900
:100360008B434361704730B5024600200023146878
:1003700024F002041460146844F00104146000E0E6
:100380005B1C546804F001041CB94FF6FF74A342CF
:10039000F6D1546804F001040CB900206CE08C79AB
:1003A000012C04D1146844F08004146003E0146844
:1003B00024F080041460CC79012C04D1146844F03A
:1003C0004004146003E0146824F0400414600C7AC4
:1003D000012C04D1146844F02004146003E0146874
:1003E00024F0200414604C7A012C04D1146844F0E9
:1003F0001004146003E0146824F0100414608C7A74
:10040000012C04D1146844F00804146003E014685B
:1004100024F008041460CC7A012C04D1146844F050
:100420000404146003E0146824F0040414608C785D
:10043000A407CD7844EA05640D7944EA05444D7972
:1004400044EA05540D886D1E2C43D461146824F0D1
:1004500001041460002300E05B1C546804F00104F4
:100460001CB14FF6FF74A342F6D1546804F00104A6
:100470000CB1002000E0012030BD00002DE9F04368
:1004800089B004460D4616461F46DDE91089B9F1CC
:10049000000F21D10121042000F058FE012148065F
:1004A00000F044FE4FF48050ADF8200003208DF89A
:1004B000220018208DF8230008A9434800F0A7FA6D
:1004C0004FF40060ADF8200048208DF8230008A903
:1004D0003D4800F09CFA29E00121082000F036FE9A
:1004E0000121084600F032FE0121480600F01EFE00
:1004F0004FF40070ADF8200003208DF82200182082
:100500008DF8230008A9314800F081FA4FF480707B
:10051000ADF8200048208DF8230008A92B4800F0F2
:1005200076FA01214FF4EA1000F0FCFA00208DF871
:100530001A0001208DF81B0000208DF81C008DF89A
:100540001D008DF81E008DF81F008DF816808DF8A7
:1005500017408DF818608DF81950ADF8147005A982
:100560001B48FFF700FF00208DF80E008DF80F00EC
:1005700001208DF810000020ADF80400ADF8060051
:10058000ADF80800ADF80A00ADF80C0001208DF8B8
:10059000110001A8FFF75AFE012202210C48FFF7C3
:1005A000D9FE14208DF8000001208DF801000020F4
:1005B0008DF8020001208DF80300684600F072FDFE
:1005C000002009B0BDE8F08300080140000C0140A4
:1005D0000064004010B500F5D87303EB01131B68ED
:1005E00003F004031372137A53B900F5D87303EBC5
:1005F00001131B6840F2FF7404EA5353136009E0CF
:1006000000F5D87303EB01131B686FF0604404EA34
:10061000D303536000F5D87303EB01131B6803F099
:100620000203537200F5D87303EB01135B6803F008
:100630000F03937200F5D87303EB01135B681B0A79
:10064000D37400F5D87303EB01139B68D37200F5E4
:10065000D87303EB01139B681C0A147300F5D8735D
:1006600003EB01139B681C0C547300F5D87303EB68
:1006700001139B681B0E937300F5D87303EB0113F2
:10068000DB68D37300F5D87303EB0113DB681C0A36
:10069000147400F5D87303EB0113DB681C0C54745D
:1006A00000F5D87303EB0113DB681B0E937421B9BB
:1006B000C36843F02003C36003E0036943F02003F1
:1006C000036110BD10B502460020936803F08063FB
:1006D000B3F1806F00D110E0936803F00063B3F1D1
:1006E000006F01D1012008E0936803F08053B3F15B
:1006F000805F01D1022000E00420042874D002F5BC
:10070000C07303EB00131B6803F0010402F5C07310
:1007100003EB00131C600B7A7BB94B7A0C8843EA1D
:10072000445302F5C07404EB00142468234302F51B
:10073000C07404EB0014236010E00B7A4C6843EAA9
:10074000C4034C7A234302F5C07404EB00142468FC
:10075000234302F5C07404EB001423608B7A03F08A
:100760000F038B7202F5C07303EB00135B6823F079
:100770000F0402F5C07303EB00135C6002F5C07355
:1007800003EB00135B688C7A234302F5C07404EB1F
:10079000001463608B7B1C064B7B44EA03440B7B99
:1007A00044EA0323CC7A234302F5C07404EB00141B
:1007B000A3608B7C1C064B7C44EA03440B7C44EA1C
:1007C0000323CC7B234302F5C07404EB0014E360E5
:1007D00002F5C07303EB00131B6843F0010402F53C
:1007E000C07303EB00131C6010BD000010B502467F
:1007F000002321B1012907D002290FD109E0906817
:100800001D4C00EA04030BE090681C4C00EA040352
:1008100006E090681A4C00EA040301E0002300BFE0
:1008200000BF184C181BA34216D007DC83B16FF031
:100830008060184470B1022818D111E0B0F5007F33
:1008400010D0114C204448B1B0F5003F0ED10BE060
:1008500002230DE000230BE0002309E0002307E062
:10086000012305E0012303E0012301E0002300BF91
:1008700000BFD8B210BD0000030000040003000850
:1008800000000310000100080001FFF730B5024628
:100890000C464FF0FF31134608E013F8010B4840B7
:1008A000C0B2064D55F8200080EA1121201EA4F1A7
:1008B0000105ACB2F1D1C84330BD00005410002096
:1008C000002111E00846002208E000F001031BB1FE
:1008D000074B83EA500000E04008521C082AF4D37A
:1008E000044B43F82100491CFF29EBD97047000055
:1008F0002083B8ED541000207047000030B5044646
:1009000004254FF4302000F06FF80546042D17D170
:100910000C48006940F002000A4908610846446139
:10092000006940F0400008614FF4302000F05CF8AE
:1009300005460448006941F6FD7108400149086117
:10094000284630BD0020024004200B49C96801F050
:10095000010109B101200EE00749C96801F0040155
:1009600009B1022007E00449C96801F0100109B18A
:10097000032000E004207047002002400348006983
:1009800040F08000014908617047000000200240EB
:1009900070B504460D460426F00200F025F8064620
:1009A000042E11D10948006940F00100074908618F
:1009B0002580F00200F018F806460448006941F668
:1009C000FE71084001490861304670BD00200240B8
:1009D000024803494860034848607047230167455F
:1009E00000200240AB89EFCD00B502460423FFF79B
:1009F000ABFF034603E0FFF7A7FF0346521E012BA0
:100A000001D1002AF7D102B90523184600BD2DE90E
:100A1000F041024600250026002000230024002784
:100A200091F803C00CF00F0591F803C00CF0100C06
:100A3000BCF1000F03D091F802C04CEA050591F813
:100A400000C0BCF1000F31D0146800202BE04FF043
:100A5000010C0CFA00F3B1F800C00CEA03069E4248
:100A600020D183004FF00F0C0CFA03F7BC4305FABA
:100A700003FC4CEA040491F803C0BCF1280F06D132
:100A80004FF0010C0CFA00FCC2F814C00AE091F817
:100A900003C0BCF1480F05D14FF0010C0CFA00FC6B
:100AA000C2F810C0401C0828D1D31460B1F800C0AF
:100AB000BCF1FF0F34DD546800202EE000F1080C7B
:100AC0004FF0010808FA0CF3B1F800C00CEA030675
:100AD0009E4221D183004FF00F0C0CFA03F7BC4368
:100AE00005FA03FC4CEA040491F803C0BCF1280F9A
:100AF00005D100F1080C08FA0CF8C2F8148091F83E
:100B000003C0BCF1480F07D100F1080C4FF00108F9
:100B100008FA0CF8C2F81080401C0828CED35460A4
:100B2000BDE8F081F0B50A4600230024002100252D
:100B300000F00046B6F1004F02D11D4EF16901E010
:100B40001B4E7168C0F3034583B200F44016B6F53E
:100B5000401F08D121F07061154E766826F070664E
:100B6000134F7E6012E000F48016B6F5801F06D1A8
:100B7000032606FA05F4A14341F0706106E0460D34
:100B8000360103FA06F6B14341F0706122B1460D19
:100B9000360103FA06F6314300F00046B6F1004F85
:100BA00002D1034EF16101E0014E7160F0BD000021
:100BB000000001400B4909680B4A11600949091DF1
:100BC0000968516007490831096891601146096850
:100BD000526801EB5201044A926801EB9201490804
:100BE00001607047E8F7FF1F2004002000BFFEE708
:100BF0000FB438B5002404987D2820D19DF81B003F
:100C000001281CD19DF81C00C8B99DF81D00B0B981
:100C10009DF81E0098B99DF81F0080B904A8007CBB
:100C200068B904A8407C50B904A8807C38B9012078
:100C300000231A46812100907B2000F033FB0498AA
:100C40007F2867D1354890F80604E8BB3448FFF7A1
:100C5000B1FF9DF81B0001285CD19DF81C103048A5
:100C60000068000E814255D19DF81D002C4909688D
:100C7000C1F3074188424DD19DF81E0028490988DB
:100C8000C1F30721884245D19DF81F002449097806
:100C900088423FD10120214981F8060404A8007C44
:100CA000010404A8407C41EA002004A9897C08438F
:100CB0001A49C1F810040020034602468121009021
:100CC0007E2000F0EFFA25E0FFE7144890F80604D4
:100CD00001281FD164201149A1F80A04002415E05D
:100CE0000DF11B00005D0D49B1F804140B4A50547E
:100CF0001046B0F80404401C1146A1F8040408464C
:100D0000B0F80E04401CA1F80E04641C9DF81A00F3
:100D1000A042E5DC38BC5DF814FB00002C04002088
:100D20001400002010B50024FFF7CAFD0A2408E0D3
:100D3000074890F80604012800D107E00A2000F0D7
:100D4000F9FB201EA4F10101CCB2F1D100BF10BD0E
:100D50002C04002008B57E4890F8060401287DD1B7
:100D60007B48B0F80404002879D07948B0F80E1414
:100D7000D0F81004001D814216D17548B0F80E0459
:100D8000001F7349A1F80E040846B0F8041400F0DF
:100D900089FB20B10B206E4981F81C042AE0012058
:100DA0006B4981F81C0425E06948B0F8040440F25E
:100DB0000441884216D16648B0F80E04001F644909
:100DC000A1F80E040846B0F8041400F06BFB20B143
:100DD0000B205F4981F81C040CE001205C4981F87C
:100DE0001C0407E05A48B0F80A0418B90220584910
:100DF00081F81C04564890F81C040B2836D154483E
:100E0000B0F80E04534901445148B0F80404001FDF
:100E1000081A4F49C1F82004B1F804140A1F4C49BC
:100E2000D1F8200400F0C2FB00204949A1F80404D5
:100E300081F81C040846B0F80E04D1F8101488425A
:100E400003D10120424981F81D04414890F80E0465
:100E500000903F48B0F80E04030A01E056E063E05A
:100E6000002282217E2000F01DFA1EE0384890F812
:100E70001C04012804D0364890F81C04022814D120
:100E8000334890F80404001FC0B200903048B0F816
:100E90000404001FC0F307232D4890F81C2483216D
:100EA0007E2000F0FFF900F0C3FB294890F81D04F4
:100EB000D0B3642000F03EFB2648406800F07F403D
:100EC000B0F1006F0FD10C20214981F81C040020E3
:100ED00003460122842100907E2000F0E3F91D48A2
:100EE00000F04EFB25E000201949A1F8040481F828
:100EF0000604032081F81C040020034602228421FA
:100F000000907E2000F0CEF900F092FB114840687E
:100F100000F07F40B0F1006F07D10C200C4981F840
:100F20001C040C4800F02CFB03E00320084981F866
:100F30001C040748B0F80A0430B10548B0F80A04A8
:100F4000401E0349A1F80A040A2000F0F3FA08BD84
:100F50002C040020002000081CB551E001222A4981
:100F60002A4800F003F92A48B0F82404012808D1DF
:100F7000002000900423082207210190FFF77EFA49
:100F80003FE02348B0F8240402280AD101200021C0
:100F900004230822CDE9001007210020FFF76EFA94
:100FA0002FE0002000900423082207210190FFF782
:100FB00065FA00F069F8B0B101200021042308228D
:100FC000CDE9001007210020FFF758FA00F05CF887
:100FD00098B902200E49A1F8240401220A490B48BD
:100FE00000F0D8F80DE001200949A1F824040122FD
:100FF0000549064800F0CEF803E00A2000F09AFA0E
:10100000ACE700BF1CBD000050080020FE1F000818
:101010002C0400202DE9F04186B00546884616468E
:1010200000240195029500208DF80C008DF80D002C
:101030008DF80E6000BF06E018F804100DF10F00E7
:101040000155601C84B2B442F6DB01A90D48FFF7DC
:1010500039FB0746002401E0601C84B23946094888
:10106000FFF7C4FB012803D040F6FF708442F3DB96
:1010700040F6FF70844203DB012006B0BDE8F0813A
:101080000020FAE70064004008B5012000231A465A
:10109000812100907B2000F005F908BD00BFFEE72C
:1010A0007047000070B5002100230F22C47804B3FC
:1010B000154C246804F4E064C4F5E064210AC1F12D
:1010C0000403CA40447804FA03F1847814402143AD
:1010D00009010E4C0678A155047804F01F0501247F
:1010E000AC4005786D11AD0005F1E025C5F8004173
:1010F00009E0047804F01F050124AC40044D067893
:10110000761145F8264070BD0CED00E000E400E0EB
:1011100080E100E002490143024A1160704700008B
:101120000000FA050CED00E07047000029B1064A06
:10113000D2690243044BDA6104E0034AD269824374
:10114000014BDA61704700000010024029B1064AE5
:1011500092690243044B9A6104E0034A9269824314
:10116000014B9A61704700000010024030B5034601
:101170000C461546002207E0184600F008F824F84F
:1011800012009B1C501C82B2AA42F5DB30BD014606
:10119000088870472DE9F05F80468A461746B8F107
:1011A000006F02D33348804501D3BDE8F09FFFF7BD
:1011B0000FFCA8F1006B4FEA9B25CBF34809C9F55A
:1011C0000074A74200DC3C464DE04FF0006101EBAB
:1011D00085208A142849FFF7C9FF00260BE009EB98
:1011E0000600254931F810004FF6FF71884200D003
:1011F00003E0701C86B2A642F1DB00BFA6421BDAF8
:101200004FF0006101EB8520FFF778FB002608E036
:101210003AF8160006EB0901174A22F81100701C73
:1012200086B2A642F4DB4FF0006101EB85208A1400
:10123000114900F023F804E022465146404600F0F0
:101240001DF8A74200D10FE06D1C4FF000090AEB1A
:10125000440AA044381B87B2B7F5007F02DD4FF483
:10126000007400E03C46B0E700BFFFF787FB00BF1B
:101270009BE7000000000108200000202DE9F0415C
:1012800005460E461746002407E036F81410284697
:10129000FFF77EFBAD1C601C84B2BC42F5DBBDE8F1
:1012A000F08170472DE9FC4107460C4615461E4665
:1012B000DDF820800020009001901248FFF77AFCB2
:1012C0008DF800400F480068000E8DF801000D48B1
:1012D0000068000C8DF802000A480088000A8DF8AA
:1012E0000300084800788DF804008DF805508DF84B
:1012F00006608DF80780082269463846FFF78AFEA7
:10130000BDE8FC811400002010B500F001F810BD0C
:101310000CB50020019000903348006840F4803004
:101320003149086000BF3048006800F40030009088
:101330000198401C0190009818B90198B0F5A06F71
:10134000F1D12948006800F4003010B1012000906C
:1013500001E0002000900098012843D12348006854
:1013600040F01000214908600846006820F00300A2
:1013700008600846006840F0020008601A484068AB
:10138000194948600846406848600846406840F48B
:10139000806048600846406820F47C104860084639
:1013A000406840F4E81048600846006840F08070EB
:1013B000086000BF0C48006800F000700028F9D0F9
:1013C0000948406820F00300074948600846406823
:1013D00040F00200486000BF0348406800F00C0085
:1013E0000828F9D10CBD0000001002400020024086
:1013F000042808D14FF0E021096941F004014FF0C1
:10140000E022116107E04FF0E021096921F00401B9
:101410004FF0E022116170477047000010B513488B
:10142000006840F001001149086008464068104912
:1014300008400E494860084600680E4908400B49BC
:1014400008600846006820F480200860084640686C
:1014500020F4FE0048604FF41F008860FFF754FF3F
:101460004FF000600449086010BD00000010024009
:101470000000FFF8FFFFF6FE08ED00E000B587B0C2
:1014800002AA00210548FFF7A5F80698009002A8D7
:101490000FC8FFF7ADFB07B000BD000000640040BF
:1014A00000BFFEE72DE9F04106460D460027701902
:1014B000041F20780006617840EA0140A17840EAE4
:1014C0000120E17808430949C1F81404281F81B2BA
:1014D0003046FFF7DBF907460448D0F81404B84259
:1014E00002D10120BDE8F0810020FBE72C040020A0
:1014F00010B56FF00400FFF77BFF0A4800680A4947
:10150000B0FBF1F0094908700846007800EB400193
:10151000C1EBC0104FF6FF7101EAC000044908801A
:1015200010BD00000000002000127A001C00002006
:101530001E0000200146114A12884A434FF0E02362
:101540005A6100229A611A46126942F001021A6138
:1015500000BF4FF0E022106900F001021AB100F460
:101560008032002AF5D04FF0E022126922F0010209
:101570004FF0E0231A6100229A6170471E0000209C
:1015800010B50446206807490840B0F1005F08D153
:101590006068054908602068FEF7F6FD02480068AB
:1015A000804710BD0000FE2F180000202DE9F05FDD
:1015B00006460F4690460024B3463D46A1461CE031
:1015C00068784FEA002A287850441FFA80FAAD1C48
:1015D0002046611C8CB20E4921F810A0B4F5806F32
:1015E00007D100244FF480625846FFF7D3FD0BF576
:1015F000006B09F102001FFA80F9C145E0D324B164
:10160000224603495846FFF7C5FDBDE8F09F00009C
:10161000540800204FF4A060FFF77CFDFFF768FF3F
:10162000FFF79AFCFFF77EFB01E0FFF793FBFCE777
:101630004FF6FF7100E000BF081EA1F10101FAD1D1
:10164000012080F3138800BF00BF0748006800F442
:10165000E060064A1043001D034A1060BFF34F8F3D
:1016600000BF00BFFEE700000CED00E00000FA053F
:10167000901600080000002020000000280100084B
:10168000B01600082000002098180000440100084F
:1016900000A24A0400000000000000000102030450
:1016A000060708090000000000000000000000001C
:04000005080000ED02
:00000001FF
