:020000040800F2
:100000008848002091010008E90B0008990B0008BE
:10001000E50B00083D020008E910000800000000A0
:100020000000000000000000000000005B0E00085F
:10003000D908000800000000710C00086D0F0008CE
:10004000AB010008AB010008AB010008AB010008E0
:10005000AB010008AB010008AB010008AB010008D0
:10006000AB010008AB010008AB010008AB010008C0
:10007000AB010008AB010008AB010008AB010008B0
:10008000AB010008AB010008AB010008AB010008A0
:10009000D10F0008AB010008AB010008AB0100085C
:1000A000AB010008AB010008AB010008AB01000880
:1000B000AB010008AB010008AB010008AB01000870
:1000C000AB010008AB010008AB010008AB01000860
:1000D000AB010008AB010008AB010008AB01000850
:1000E000AB010008AB010008AB01000800F002F80A
:1000F00000F03AF80AA090E8000C82448344AAF188
:100100000107DA4501D100F02FF8AFF2090EBAE885
:100110000F0013F0010F18BFFB1A43F0010318473B
:10012000A8120000C8120000103A24BF78C878C195
:10013000FAD8520724BF30C830C144BF04680C60ED
:10014000704700000023002400250026103A28BF35
:1001500078C1FBD8520728BF30C148BF0B60704739
:100160001FB51FBD10B510BD00F035F81146FFF7E3
:10017000F7FF01F051F800F053F803B4FFF7F2FF76
:1001800003BC00F0B3FF000080F308887047000054
:100190000948804709480047FEE7FEE7FEE7FEE71B
:1001A000FEE7FEE7FEE7FEE7FEE7FEE70448054957
:1001B000034A054B70470000710F0008ED0000086E
:1001C00088440020884800208844002070477047F9
:1001D000704770477047754600F02CF8AE46050032
:1001E0006946534620F00700854618B020B5FFF752
:1001F000DDFFBDE820404FF000064FF000074FF054
:1002000000084FF0000B21F00701AC46ACE8C00934
:10021000ACE8C009ACE8C009ACE8C0098D4670473D
:1002200010B50446AFF300802046BDE81040FFF74C
:10023000A4BF0000004870472444002000BFFEE730
:1002400010B50021837A012202FA03F13D4A1268B7
:1002500042F001023B4B1A603A4A1C3212688A4350
:10026000384B1C331A60027BCAB9364A0C3212680A
:100270008A43344B0C331A604288C38842EA0343F2
:10028000304A4032847A42F834300288838842EA25
:1002900003432C4A4032847A02EBC4025360027B4F
:1002A000012A19D1274A0C3212680A43254B0C3314
:1002B0001A604288038842EA0343224A4032847A21
:1002C00042F83430C288838842EA03431D4A4032F0
:1002D000847A02EBC4025360C27A3AB9194A121DF9
:1002E00012688A43174B1B1D1A6006E0154A121D3F
:1002F00012680A43134B1B1D1A60028932B9114A56
:10030000143212688A430F4B14331A600289012A8F
:1003100006D10C4A143212680A430A4B14331A608D
:10032000427B012A06D1074A1C3212680A43054B58
:100330001C331A60034A126822F00102014B1A6052
:1003400010BD0000006600401AB143690B434361D1
:1003500002E043698B434361704730B50246002099
:100360000023146824F002041460146844F00104AB
:10037000146000E05B1C546804F001041CB94FF6E3
:10038000FF74A342F6D1546804F001040CB90020B4
:100390006CE08C79012C04D1146844F08004146062
:1003A00003E0146824F080041460CC79012C04D19B
:1003B000146844F04004146003E0146824F040041E
:1003C00014600C7A012C04D1146844F020041460E9
:1003D00003E0146824F0200414604C7A012C04D14A
:1003E000146844F01004146003E0146824F010044E
:1003F00014608C7A012C04D1146844F00804146051
:1004000003E0146824F008041460CC7A012C04D1B1
:10041000146844F00404146003E0146824F0040435
:1004200014608C78A407CD7844EA05640D7944EA19
:1004300005444D7944EA05540D886D1E2C43D46162
:10044000146824F001041460002300E05B1C54686D
:1004500004F001041CB14FF6FF74A342F6D15468B6
:1004600004F001040CB1002000E0012030BD0000C8
:100470002DE9F0418AB004460D4616461F46DDF8C8
:1004800040800121042000F03DFC0121480600F0DD
:1004900029FC4FF48050ADF8240003208DF826008D
:1004A00018208DF8270009A92D4800F0A0FA4FF474
:1004B0000060ADF8240048208DF8270009A92848DD
:1004C00000F095FA00208DF81E008DF81F008DF8C1
:1004D000200001208DF8210000208DF822008DF8E9
:1004E00023008DF81A808DF81B408DF81C608DF864
:1004F0001D50ADF8187006A91A48FFF72EFF00200E
:100500008DF812008DF8130001208DF814000020E2
:10051000ADF80800ADF80A00ADF80C00ADF80E001B
:10052000ADF8100001208DF8150002A8FFF788FE35
:10053000012202210B48FFF707FF14208DF8040069
:1005400001208DF8050000208DF8060001208DF8AF
:10055000070001A800F04AFB00200AB0BDE8F081C6
:10056000000801400064004010B500F5D87303EBAB
:1005700001131B6803F004031372137A53B900F5D7
:10058000D87303EB01131B6840F2FF7404EA535362
:10059000136009E000F5D87303EB01131B686FF0DB
:1005A000604404EAD303536000F5D87303EB0113EE
:1005B0001B6803F00203537200F5D87303EB0113B9
:1005C0005B6803F00F03937200F5D87303EB01131C
:1005D0005B681B0AD37400F5D87303EB01139B68A7
:1005E000D37200F5D87303EB01139B681C0A1473D4
:1005F00000F5D87303EB01139B681C0C547300F5D2
:10060000D87303EB01139B681B0E937300F5D8732B
:1006100003EB0113DB68D37300F5D87303EB01130D
:10062000DB681C0A147400F5D87303EB0113DB6854
:100630001C0C547400F5D87303EB0113DB681B0E1C
:10064000937421B9C36843F02003C36003E00369D6
:1006500043F02003036110BD10B5024600209368EB
:1006600003F08063B3F1806F00D110E0936803F072
:100670000063B3F1006F01D1012008E0936803F03B
:100680008053B3F1805F01D1022000E004200428F0
:1006900074D002F5C07303EB00131B6803F0010470
:1006A00002F5C07303EB00131C600B7A7BB94B7A25
:1006B0000C8843EA445302F5C07404EB0014246828
:1006C000234302F5C07404EB0014236010E00B7A9E
:1006D0004C6843EAC4034C7A234302F5C07404EB2C
:1006E00000142468234302F5C07404EB0014236053
:1006F0008B7A03F00F038B7202F5C07303EB0013C8
:100700005B6823F00F0402F5C07303EB00135C6019
:1007100002F5C07303EB00135B688C7A234302F588
:10072000C07404EB001463608B7B1C064B7B44EAB3
:1007300003440B7B44EA0323CC7A234302F5C074C1
:1007400004EB0014A3608B7C1C064B7C44EA03443E
:100750000B7C44EA0323CC7B234302F5C07404EBF7
:100760000014E36002F5C07303EB00131B6843F051
:10077000010402F5C07303EB00131C6010BD000000
:1007800010B50246002321B1012907D002290FD15B
:1007900009E090681D4C00EA04030BE090681C4CD3
:1007A00000EA040306E090681A4C00EA040301E042
:1007B000002300BF00BF184C181BA34216D007DC53
:1007C00083B16FF08060184470B1022818D111E035
:1007D000B0F5007F10D0114C204448B1B0F5003F77
:1007E0000ED10BE002230DE000230BE0002309E013
:1007F000002307E0012305E0012303E0012301E0DA
:10080000002300BF00BFD8B210BD000003000004E9
:100810000003000800000310000100080001FFF7BA
:100820007CB506460D4614460020009001908DF8D8
:100830000050208800128DF8010020788DF8020009
:1008400000208DF803008DF804008DF805008DF868
:1008500006008DF8070008226946304600F002F8CD
:100860007CBD00002DE9F04186B00546884616465D
:1008700000240195029500208DF80C008DF80D00E4
:100880008DF80E6000BF06E018F804100DF10F009F
:100890000155601C84B2B442F6DB01A90D48FFF794
:1008A000DBFE0746002401E0601C84B2394609489B
:1008B000FFF766FF18B940F6FF708442F4DB40F69C
:1008C000FF70844203DB012006B0BDE8F081002008
:1008D000FAE70000006400407047000030B50446AD
:1008E00004254FF4302000F06FF80546042D17D191
:1008F0000C48006940F002000A490861084644615A
:10090000006940F0400008614FF4302000F05CF8CE
:1009100005460448006941F6FD7108400149086137
:10092000284630BD0020024004200B49C96801F070
:10093000010109B101200EE00749C96801F0040175
:1009400009B1022007E00449C96801F0100109B1AA
:10095000032000E0042070470020024003480069A3
:1009600040F080000149086170470000002002400B
:1009700070B504460D460426F00200F025F8064640
:10098000042E11D10948006940F0010007490861AF
:100990002580F00200F018F806460448006941F688
:1009A000FE71084001490861304670BD00200240D8
:1009B000024803494860034848607047230167457F
:1009C00000200240AB89EFCD00B502460423FFF7BB
:1009D000ABFF034603E0FFF7A7FF0346521E012BC0
:1009E00001D1002AF7D102B90523184600BD2DE92F
:1009F000F0410246002500260020002300240027A5
:100A000091F803C00CF00F0591F803C00CF0100C26
:100A1000BCF1000F03D091F802C04CEA050591F833
:100A200000C0BCF1000F31D0146800202BE04FF063
:100A3000010C0CFA00F3B1F800C00CEA03069E4268
:100A400020D183004FF00F0C0CFA03F7BC4305FADA
:100A500003FC4CEA040491F803C0BCF1280F06D152
:100A60004FF0010C0CFA00FCC2F814C00AE091F837
:100A700003C0BCF1480F05D14FF0010C0CFA00FC8B
:100A8000C2F810C0401C0828D1D31460B1F800C0CF
:100A9000BCF1FF0F34DD546800202EE000F1080C9B
:100AA0004FF0010808FA0CF3B1F800C00CEA030695
:100AB0009E4221D183004FF00F0C0CFA03F7BC4388
:100AC00005FA03FC4CEA040491F803C0BCF1280FBA
:100AD00005D100F1080C08FA0CF8C2F8148091F85E
:100AE00003C0BCF1480F07D100F1080C4FF001081A
:100AF00008FA0CF8C2F81080401C0828CED35460C5
:100B0000BDE8F081F0B50A4600230024002100254D
:100B100000F00046B6F1004F02D11D4EF16901E030
:100B20001B4E7168C0F3034583B200F44016B6F55E
:100B3000401F08D121F07061154E766826F070666E
:100B4000134F7E6012E000F48016B6F5801F06D1C8
:100B5000032606FA05F4A14341F0706106E0460D54
:100B6000360103FA06F6B14341F0706122B1460D39
:100B7000360103FA06F6314300F00046B6F1004FA5
:100B800002D1034EF16101E0014E7160F0BD000041
:100B9000000001400161704700BFFEE708B5012178
:100BA000082000F0AFF80121084600F0ABF8012161
:100BB0000A48FFF7A7FF0820ADF8000010208DF8C5
:100BC000030003208DF8020069460548FFF70FFF78
:100BD00008210348FFF7DEFF08BD000000023000D7
:100BE000000C014000BFFEE77047000070B5002117
:100BF00000230F22C47804B3154C246804F4E06485
:100C0000C4F5E064210AC1F10403CA40447804FA3F
:100C100003F184781440214309010E4C0678A15554
:100C2000047804F01F050124AC4005786D11AD0077
:100C300005F1E025C5F8004109E0047804F01F053E
:100C40000124AC40044D0678761145F8264070BD6D
:100C50000CED00E000E400E080E100E00249014327
:100C6000024A1160704700000000FA050CED00E038
:100C70007047000010B51948006808B9012000E06D
:100C8000002016490860322000F056FA1448D0F8C7
:100C90008C0108B9012000E00020104908604FF4E1
:100CA000E17000F049FA0E48D0F88C0108B9012033
:100CB00000E0002009490860322000F03DFA0848B1
:100CC000D0F88C0108B9012000E000200349086039
:100CD0004FF4E17000F030FA10BD00008C81214229
:100CE0000080214229B1064AD2690243044BDA61ED
:100CF00004E0034AD2698243014BDA617047000085
:100D00000010024029B1064A92690243044B9A61DD
:100D100004E0034A92698243014B9A6170470000E4
:100D20000010024030B503460C461546002207E08D
:100D3000184600F008F824F812009B1C501C82B2E0
:100D4000AA42F5DB30BD0146088870472DE9F05F07
:100D500080468A461746B8F1006F02D33348804573
:100D600001D3BDE8F09FFFF723FEA8F1006B4FEA27
:100D70009B25CBF34809C9F50074A74200DC3C462B
:100D80004DE04FF0006101EB85208A142849FFF700
:100D9000C9FF00260BE009EB0600254931F81000D9
:100DA0004FF6FF71884200D003E0701C86B2A64265
:100DB000F1DB00BFA6421BDA4FF0006101EB85209A
:100DC000FFF78CFD002608E03AF8160006EB090153
:100DD000174A22F81100701C86B2A642F4DB4FF0CD
:100DE000006101EB85208A14114900F023F804E02A
:100DF00022465146404600F01DF8A74200D10FE0C0
:100E00006D1C4FF000090AEB440AA044381B87B25E
:100E1000B7F5007F02DD4FF4007400E03C46B0E718
:100E200000BFFFF79BFD00BF9BE70000000001082B
:100E30001C0000202DE9F04105460E46174600240F
:100E400007E036F814102846FFF792FDAD1C601C31
:100E500084B2BC42F5DBBDE8F081704710B500F00C
:100E600001F810BD0CB500200190009033480068D7
:100E700040F480303149086000BF3048006800F419
:100E8000003000900198401C0190009818B901981A
:100E9000B0F5A06FF1D12948006800F4003010B11E
:100EA0000120009001E0002000900098012843D12B
:100EB0002348006840F01000214908600846006897
:100EC00020F0030008600846006840F00200086057
:100ED0001A48406819494860084640684860084612
:100EE000406840F4806048600846406820F47C1008
:100EF00048600846406840F4E810486008460068CA
:100F000040F08070086000BF0C48006800F000707E
:100F10000028F9D00948406820F0030007494860DC
:100F20000846406840F00200486000BF034840683F
:100F300000F00C000828F9D10CBD000000100240A0
:100F400000200240042808D14FF0E021096941F057
:100F500004014FF0E022116107E04FF0E021096940
:100F600021F004014FF0E02211617047704700004A
:100F700010B51348006840F00100114908600846A8
:100F80004068104908400E494860084600680E490C
:100F900008400B4908600846006820F4802008607B
:100FA0000846406820F4FE0048604FF41F00886047
:100FB000FFF754FF4FF000600449086010BD0000C7
:100FC000001002400000FFF8FFFFF6FE08ED00E011
:100FD00010B586B0002401AA00214048FFF7C4FAEA
:100FE00001987E2878D13E4890F80208002855D113
:100FF0009DF80F00012820D19DF8100002281CD177
:101000009DF81100032818D19DF81200042814D16E
:101010009DF81300052810D19DF8140006280CD166
:101020009DF81500072808D19DF81600082804D15E
:1010300002212B4880F804184EE09DF80F00082884
:1010400027D19DF81000072823D19DF8110006280C
:101050001FD19DF8120005281BD19DF8130004280C
:1010600017D19DF81400032813D19DF8150002280C
:101070000FD19DF8160001280BD1194890F80408EB
:10108000022829D10121164880F8041880F8021896
:1010900022E00021124880F804181DE0104890F862
:1010A0000208012818D164210D48A0F80618002470
:1010B00010E00DF10F00015D0948B0F80008094A81
:1010C00011540748B0F80008401C81B20448A0F849
:1010D0000018641C082CECDB06B010BD0064004056
:1010E0001C3400201C04002000BFFEE7014600BFA6
:1010F0007047000010B56FF00400FFF723FF0A48A7
:1011000000680A49B0FBF1F0094908700846007808
:1011100000EB4001C1EBC0104FF6FF7101EAC000C7
:101120000449088010BD00000000002000127A0071
:10113000180000201A0000200146114A12884A4374
:101140004FF0E0235A6100229A611A46126942F078
:1011500001021A6100BF4FF0E022106900F00102A5
:101160001AB100F48032002AF5D04FF0E022126963
:1011700022F001024FF0E0231A6100229A617047C9
:101180001A00002010B50446206807490840B0F155
:10119000005F08D16068054908602068FEF7F4FF29
:1011A00002480068804710BD0000FE2F1400002098
:1011B0002DE9F05F06460F4690460024B3463D46B3
:1011C000A1461CE068784FEA002A287850441FFAAC
:1011D00080FAAD1C2046611C8CB20E4921F810A08B
:1011E000B4F5806F07D100244FF480625846FFF7B2
:1011F000ADFD0BF5006B09F102001FFA80F9C14546
:10120000E0D324B1224603495846FFF79FFDBDE8CD
:10121000F09F0000243C002008B50024FFF76AFF7F
:10122000FFF7BCFCFFF726FD4FF4A060FFF716FDAB
:1012300000200423082207210090FFF719F96421F8
:101240005D48A0F806180AE05C48006808B901206B
:1012500000E00020594908603220FFF76DFF564832
:10126000B0F80618B0F80608401E82B25248A0F83E
:1012700006280029E8D16421A0F806189BE04E4812
:1012800090F80208012867D14B48B0F80008002800
:1012900075D04948B0F80608002870D14648B0F823
:1012A0000008B0F5806F04DD0121434880F8031881
:1012B00003E00021404880F803183F4890F80308F5
:1012C000012838D13E48406800F07F40B0F1006FFF
:1012D0002DD1394890F8031800F500627E20FFF701
:1012E0009FFA3548B0F8002835493648FFF760FFC7
:1012F0004FF46170FFF720FF3248406800F07F40F4
:10130000B0F1006F0ED102212B4880F8031890F83D
:10131000031800F500627E20FFF782FA2948FFF7E4
:1013200031FF08E00021244880F8031803E0002181
:10133000214880F80318204890F8031800F500624F
:101340007E20FFF76DFA00211B48A0F8001880F8F6
:10135000031880F8021812E01A48406800F07F4035
:10136000B0F1006F07D11748FFF70CFF02211248B8
:1013700080F8031803E000210F4880F80318601C70
:1013800084B20D48B0F8060838B10B48B0F806082A
:10139000401E81B20848A0F806180A20FFF7CCFECC
:1013A0001E2C08D10548006808B9012000E0002083
:1013B00002490860002462E71C3400208C8121422D
:1013C0001C04002000200008E81300080000002092
:1013D0001C00000028010008041400081C00002064
:1013E0006C4800004401000800A24A04000000000C
:1013F00000000000010203040607080900000000C5
:0414000000000000E8
:04000005080000ED02
:00000001FF
